:020000040800F2
:100000009808002089010008E1010008E1010008CA
:10001000E1010008E1010008E10100080000000022
:10002000000000000000000000000000E1010008E6
:10003000E101000800000000E1010008E101000802
:10004000E1010008E1010008E1010008E101000808
:10005000E1010008E1010008E1010008E1010008F8
:10006000E1010008E1010008E1010008E1010008E8
:10007000E1010008E1010008E1010008E1010008D8
:10008000E1010008E1010008E1010008E1010008C8
:10009000E1010008E1010008E1010008E1010008B8
:1000A000E1010008E1010008E1010008E1010008A8
:1000B000E1010008E1010008E1010008E101000898
:1000C000E1010008E1010008E1010008E101000888
:1000D000E1010008E1010008E10100080D07000846
:1000E000E1010008E1010008E1010008E101000868
:1000F000E1010008E1010008E1010008E101000858
:10010000E1010008E1010008E1010008E101000847
:10011000E1010008E1010008D5060008E10100083E
:10012000E1010008E1010008E9050008E10100081B
:10013000E1010008E1010008E1010008E101000817
:10014000E1010008E1010008E1010008E101000807
:10015000E1010008E1010008E1010008E1010008F7
:10016000E1010008E1010008E1010008E1010008E7
:10017000E1010008E1010008E1010008E1010008D7
:10018000E1010008E101000880B582B000AF0F4B2B
:100190007B600F4B3B6007E03B681A1D3A607A6852
:1001A000111D796012681A603B680A4A9342F3D3C2
:1001B00009480A494FF000028842B8BF40F8042BB2
:1001C000FADB00F001FA0837BD4680BD641C000868
:1001D000000000200000002000000020940000200B
:1001E00080B400AFFEE700BF80B483B000AF034629
:1001F000FB71084997F907305B09FA7902F01F0291
:10020000012000FA02F241F823200C37BD465DF8C8
:10021000047B704700E100E080B500AF2B4A2B4B18
:100220001B6B43F480031363294A294B1B6843F07B
:1002300000731360264A264B1B681360244A244B24
:100240001B681360224A224B1B6843F480631360CF
:100250001F4A1F4B1B6843F4805313601C4A1C4BFE
:100260001B6843F480431360194A194B1B6843F41D
:1002700080731360164A164B1B6843F400331360F7
:10028000134A134B1B681360114A114B1B68136010
:100290000F4B03225A600E4B0E4A9A600C4B0E4ACB
:1002A000DA600B4A0A4B5B695361094A084B1B68C9
:1002B00043F0100313603A20FFF796FF044A044B03
:1002C0001B6843F00103136080BD00BF003802408B
:1002D000406402404C2101402000002080B400AF67
:1002E000284A284B5B6C43F400735364264A264B20
:1002F0005B6843F440335360244A244B5B6843F407
:1003000080735360214A214B5B6843F490435360F0
:100310001E4A1E4B9B6893601C4B4FF40012DA621E
:100320001A4B00221A61194B0022DA60174B43F670
:10033000C3525A63154A154B9B6843F4007393608C
:10034000124A124B9B6843F4807393600D4A0D4B25
:100350001B6B43F0050313630D4A0D4B1B6843F001
:10036000C00313600B4A0B4B1B6843F470631360AC
:10037000064A064B9B6843F001039360BD465DF857
:10038000047B7047003802400023014000210140F7
:10039000000002400008024080B500AF144A144B30
:1003A0001B6B43F002031363114A114B1B6C43F4A4
:1003B000802313640F4B4FF4EE425A620D4A0D4BEB
:1003C0001B6843F02A5343F4001313600A4B4FF4A5
:1003D00089521A81084A084B9B899BB243F4005307
:1003E00043F03C039BB293812720FFF7FDFE80BDC5
:1003F00000380240000402400048004080B483B04E
:1004000000AF0346FB7100BF074B1B889BB203F094
:100410008003002BF8D0044BFA7992B29A800C3703
:10042000BD465DF8047B70470048004080B582B04F
:1004300000AF786007E07B681B781846FFF7DEFFA7
:100440007B6801337B607B681B78002BF3D1083716
:10045000BD4680BD80B400AF1B4A1B4B9B6843F474
:1004600014439360184A184B1B6843F4803313609D
:1004700000BF154B1B6803F40033002BF9D0124B5F
:10048000124A5A60104A104B1B6843F08073136085
:1004900000BF0D4B1B6803F00073002BF9D00C4B11
:1004A00040F205621A60084A074B9B6843F002035A
:1004B000936000BF044B9B6803F00F030A2BF9D134
:1004C000BD465DF8047B704700380240042A4007AF
:1004D000003C024080B400AF274A274B1B6C43F01E
:1004E00002031364254B41F63F721A85234B40F2F9
:1004F000E732DA62214A214B1B8C9BB243F48873AA
:1005000043F001039BB213841C4A1C4B1B8B9BB210
:1005100043F4C04343F060039BB21383174A174B65
:100520009B8B9BB243F060039BB29383124A124BA6
:100530001B6B43F003031363114A114B1B6843F415
:10054000204313600E4A0E4B1B6A43F0085313629C
:100550000C4A0C4B1B6843F002031360094A094B19
:100560001B6A43F002031362044B01221A80BD464A
:100570005DF8047B704700BF003802400004004073
:10058000000002400004024080B500AF0C4A0C4B52
:100590001B6C43F0100313640A4B42F20F721A856E
:1005A000084B41F28732DA62064A064B9B899BB2BE
:1005B00043F001039BB293813620FFF715FE80BD07
:1005C000003802400010004080B500AFFFF742FF46
:1005D000FFF7E2FEFFF77EFFFFF71EFEFFF77EFE4E
:1005E000FFF7D2FFFEE700BF90B583B002AF344BF8
:1005F0001B6803F40013002B59D0324C324B1B689C
:10060000184600F007FD02460B46104619462AA37D
:10061000D3E9002300F064FD02460B46104619465C
:1006200000F070FF03466363264C274B5B68184657
:1006300000F0F0FC02460B46104619461EA3D3E913
:10064000002300F04DFD02460B461046194600F00F
:1006500059FF0346A3631B4C1B4B9B68184600F0D5
:10066000D9FC02460B461046194613A3D3E90023D2
:1006700000F036FD02460B461046194600F042FFD8
:100680000346E363104B1A680F4B5C680E4B9B6884
:1006900000930E480E49234600F054FB0B48FFF729
:1006A000C5FE074A064B9B6843F40013936004376A
:1006B000BD4690BDAFF30080B4C876BE9F1ACF3F51
:1006C0000064024000040040200000202C000020B4
:1006D000341C000880B400AF0A4B1B8A9BB203F0A5
:1006E0000103002B05D0084A074B9B6843F0804369
:1006F0009360044B1B8A034B00221A82BD465DF8AF
:10070000047B7047001000400021014080B500AF1D
:100710002D4B1B889BB203F02003002B0DD02B4BDD
:100720001B680133294A1360284B1B68013B264A8A
:10073000928892B2D1B2264AD154234B1B889BB2E5
:1007400003F01003002B3ED0214800F0FBFE0346CF
:100750001A46204B1A601E481F4901F079F80346DB
:10076000002B02D01D4B01221A8019481C4901F0B0
:100770006FF80346002B0BD0184B00221A80194B40
:1007800000225A63174B00229A63164B0022DA6349
:10079000154B00221A6009E0134B1B680C4A00211C
:1007A000D154114B1B6801330F4A13600E4B1A686A
:1007B000084B1B689A42EFDB044B00221A60024B85
:1007C0001B88014B9B8880BD004800400000002032
:1007D00008000020040000205C1C000800100040FD
:1007E000601C0008000400401C00002080B483B09E
:1007F00000AF78600B46FB707B68FA781A700123B3
:1008000018460C37BD465DF8047B704780B485B050
:1008100000AF786039600023FB600AE07B685A1CF7
:100820007A603A68511C396012781A70FB6801339B
:10083000FB603B681B78002BF0D1FB68184614372F
:10084000BD465DF8047B704780B586B000AFF860A8
:100850007A603B600B46FB7200237B617B68013B47
:100860007B603B68092B10D93B681E4AA2FB03231F
:10087000DB08FA7AF86811467A68FFF7E5FF7861D5
:100880007B69FA681344FB6011E00DE0FB7AF868BD
:100890001946FFF7ABFFFB680133FB607B6901334F
:1008A0007B617B68013B7B607B68002BEEDC3968F9
:1008B0000C4BA3FB0123DA0813469B0013445B0097
:1008C000CA1AD3B23033DBB2F8681946FFF78EFF8D
:1008D00002467B6913447B617B6918461837BD4625
:1008E00080BD00BFCDCCCCCC90B587B000AFF86058
:1008F0007A603B600B46FB7200237B613B68002BF8
:1009000003DA3B685B423B6101E03B683B617B682B
:10091000013B7B603B69092B25D93B68002B0FDA33
:100920003B69314AA2FB0323DB085B421C46FB7A8E
:10093000F86819467A682346FFF7D6FF78610DE01C
:100940003B69294AA2FB0323DB081C46FB7AF868B3
:1009500019467A682346FFF7C7FF78617B69FA6812
:100960001344FB6025E03B68002B02DA7B68013B07
:100970007B600DE0FB7AF8681946FFF737FFFB68EC
:100980000133FB607B6901337B617B68013B7B60EA
:100990007B68002BEEDC3B68002B0ADAF8682D211F
:1009A000FFF724FF02467B6913447B61FB68013338
:1009B000FB6039690C4BA3FB0123DA0813469B004B
:1009C00013445B00CA1AD3B23033DBB2F86819465D
:1009D000FFF70CFF02467B6913447B617B69184675
:1009E0001C37BD4690BD00BFCDCCCCCC90B589B0F6
:1009F00002AFF8607A601A460B46FB721346BB7270
:100A000000237B617B68013B7B60BB6A1B09002B79
:100A100013D0BB6A1B09FA7ABC7A0093F8681146B6
:100A20007A682346FFF7E2FF02467B6913447B6145
:100A30007B69FA681344FB6011E00DE0FB7AF8680B
:100A40001946FFF7D3FEFB680133FB607B69013376
:100A50007B617B68013B7B607B68002BEEDCBB6AC3
:100A600003F00F03092B0BD8BB6ADBB203F00F03B3
:100A7000DBB23033DBB2F8681946FFF7B7FE19E096
:100A8000BB7A002B0BD0BB6ADBB203F00F03DBB2E7
:100A90003733DBB2F8681946FFF7A8FE0AE0BB6AF5
:100AA000DBB203F00F03DBB25733DBB2F868194651
:100AB000FFF79CFE7B6901337B617B6918461C371D
:100AC000BD4690BD90B58BB002AFF860B9607A605A
:100AD0003B600023BB6100237B61FB68002B02D0DD
:100AE000FB6800221A70FCE07B681B78252B0BD07A
:100AF000FB685A1CFA607A68511C796012781A7087
:100B00007B6901337B61ECE07B6801331B78252B2B
:100B10000BD1FB685A1CFA6025221A707B680233DD
:100B20007B607B6901337B61DBE02023FB77002363
:100B3000BB777B6801337B607B681B78302B04D1EB
:100B40003023FB777B6801337B600EE0BB7F1A4666
:100B5000920013445B00DAB27B681B781344DBB26B
:100B6000303BBB777B6801337B607B681B782F2B26
:100B700003D97B681B78392BE8D9BA7F7B6913448A
:100B80001A46BB689A4205D9BB68DAB27B69DBB208
:100B9000D31ABB777B681B78583B202B00F29380DD
:100BA00001A252F823F000BF7F0C0008C70C000818
:100BB000C70C0008C70C0008C70C0008C70C0008C9
:100BC000C70C0008C70C0008C70C0008C70C0008B9
:100BD000C70C0008B10C00082D0C0008C70C000859
:100BE000C70C0008C70C0008C70C00082D0C000833
:100BF000C70C0008C70C0008C70C0008C70C000889
:100C0000C70C0008C70C0008C70C0008C70C000878
:100C1000C70C00089D0C0008C70C0008470C000812
:100C2000C70C0008C70C0008610C0008BC7F3B68BB
:100C30001A1D3A601B68FA7FF86811462246FFF7D2
:100C400053FEB86142E0BC7F3B681A1D3A601B68E6
:100C5000FA7FF86811462246FFF7F6FDB86135E0E5
:100C6000BC7F3B681A1D3A601B68FA7F0093F868E6
:100C7000114622460023FFF7B9FEB86126E0BC7F8B
:100C80003B681A1D3A601B68FA7F0093F8681146AA
:100C900022460123FFF7AAFEB86117E03B681A1D40
:100CA0003A601B68F8681946FFF7B0FDB8610DE0BF
:100CB0003B681A1D3A601B68DBB2F8681946FFF7FB
:100CC00095FDB86102E04FF0FF3325E07B6801330A
:100CD0007B60BB69FA681344FB607A69BB691344A3
:100CE0007B617B681B78002B04D07A69BB689A42D1
:100CF000FFF4FAAE7A69BB689A4203D2FB6800221D
:100D00001A7008E0FB68013BFB60FB6800221A7068
:100D10007B69013B7B617B6918462437BD4690BDEA
:100D200080B584B000AFF860B9607A60F86864217B
:100D3000BA687B68FFF7C6FE034618461037BD4603
:100D400080BD00BF0EB480B585B000AF786007F1FC
:100D50002003BB607868F969BA68FFF7E1FFF860C3
:100D6000FB6818461437BD46BDE8804003B07047A5
:100D700081F0004102E000BF83F0004330B54FEA4C
:100D800041044FEA430594EA050F08BF90EA020FB9
:100D90001FBF54EA000C55EA020C7FEA645C7FEA4C
:100DA000655C00F0E2804FEA5454D4EB5555B8BF6F
:100DB0006D420CDD2C4480EA020281EA030382EAE0
:100DC000000083EA010180EA020281EA0303362D72
:100DD00088BF30BD11F0004F4FEA01314FF4801C45
:100DE0004CEA113102D0404261EB410113F0004F57
:100DF0004FEA03334CEA133302D0524263EB43030E
:100E000094EA050F00F0A780A4F10104D5F1200EAB
:100E10000DDB02FA0EFC22FA05F2801841F1000106
:100E200003FA0EF2801843FA05F359410EE0A5F1DA
:100E300020050EF1200E012A03FA0EFC28BF4CF00B
:100E4000020C43FA05F3C01851EBE37101F00045C1
:100E500007D54FF0000EDCF1000C7EEB00006EEBCE
:100E60000101B1F5801F1BD3B1F5001F0CD3490858
:100E70005FEA30004FEA3C0C04F101044FEA4452AF
:100E800012F5800F80F09A80BCF1004F08BF5FEA36
:100E9000500C50F1000041EB045141EA050130BD16
:100EA0005FEA4C0C404141EB010111F4801FA4F1B9
:100EB0000104E9D191F0000F04BF01460020B1FA0E
:100EC00081F308BF2033A3F10B03B3F120020CDA46
:100ED0000C3208DD02F1140CC2F10C0201FA0CF024
:100EE00021FA02F10CE002F11402D8BFC2F1200C89
:100EF00001FA02F120FA0CFCDCBF41EA0C0190403F
:100F0000E41AA2BF01EB0451294330BD6FEA040487
:100F10001F3C1CDA0C340EDC04F11404C4F1200272
:100F200020FA04F001FA02F340EA030021FA04F384
:100F300045EA030130BDC4F10C04C4F1200220FADB
:100F400002F001FA04F340EA0300294630BD21FA19
:100F500004F0294630BD94F0000F83F4801306BFDF
:100F600081F480110134013D4EE77FEA645C18BFD3
:100F70007FEA655C29D094EA050F08BF90EA020F6A
:100F800005D054EA000C04BF1946104630BD91EA62
:100F9000030F1EBF0021002030BD5FEA545C05D165
:100FA0004000494128BF41F0004130BD14F58004A4
:100FB0003CBF01F5801130BD01F0004545F0FE4118
:100FC00041F470014FF0000030BD7FEA645C1ABF4D
:100FD000194610467FEA655C1CBF0B46024650EA84
:100FE000013406BF52EA033591EA030F41F40021B0
:100FF00030BD00BF90F0000F04BF0021704730B536
:101000004FF4806404F132044FF000054FF000010A
:1010100050E700BF90F0000F04BF0021704730B5CB
:101020004FF4806404F1320410F0004548BF4042A0
:101030004FF000013EE700BF42004FEAE2014FEAF5
:1010400031014FEA02701FBF12F07F4393F07F4FD0
:1010500081F06051704792F0000F14BF93F07F4F02
:10106000704730B54FF4607401F0004521F0004145
:1010700020E700BF50EA010208BF704730B54FF0CB
:1010800000050AE050EA010208BF704730B511F0D0
:10109000004502D5404261EB41014FF4806404F108
:1010A00032045FEA915C3FF4DCAE4FF003025FEA8A
:1010B000DC0C18BF03325FEADC0C18BF033202EB12
:1010C000DC02C2F1200300FA03FC20FA02F001FA6C
:1010D00003FE40EA0E0021FA02F11444C1E600BF0B
:1010E00070B54FF0FF0C4CF4E06C1CEA11541DBFBE
:1010F0001CEA135594EA0C0F95EA0C0F00F0DEF889
:101100002C4481EA030621EA4C5123EA4C5350EA6D
:10111000013518BF52EA033541F4801143F48013BE
:1011200038D0A0FB02CE4FF00005E1FB02E506F04F
:101130000042E0FB03E54FF00006E1FB03569CF0A4
:10114000000F18BF4EF0010EA4F1FF04B6F5007FAA
:1011500064F5407404D25FEA4E0E6D4146EB06061C
:1011600042EAC62141EA55514FEAC52040EA5E50A5
:101170004FEACE2EB4F1FD0C88BFBCF5E06F1ED84F
:10118000BEF1004F08BF5FEA500E50F1000041EB86
:10119000045170BD06F0004646EA010140EA020033
:1011A00081EA0301B4EB5C04C2BFD4EB0C0541EA55
:1011B000045170BD41F480114FF0000E013C00F36A
:1011C000AB8014F1360FDEBF002001F0004170BD8E
:1011D000C4F10004203C35DA0C341BDC04F11404A7
:1011E000C4F1200500FA05F320FA04F001FA05F233
:1011F00040EA020001F0004221F0004110EBD37000
:1012000021FA04F642EB06015EEA430E08BF20EA2B
:10121000D37070BDC4F10C04C4F1200500FA04F3CE
:1012200020FA05F001FA04F240EA020001F0004160
:1012300010EBD37041F100015EEA430E08BF20EAD3
:10124000D37070BDC4F1200500FA05F24EEA020E1B
:1012500020FA04F301FA05F243EA020321FA04F04A
:1012600001F0004121FA04F220EA020000EBD37001
:101270005EEA430E08BF20EAD37070BD94F0000F01
:101280000FD101F00046400041EB010111F4801F35
:1012900008BF013CF7D041EA060195F0000F18BFE6
:1012A000704703F00046520043EB030313F4801F22
:1012B00008BF013DF7D043EA0603704794EA0C0FDC
:1012C0000CEA135518BF95EA0C0F0CD050EA4106F2
:1012D00018BF52EA4306D1D181EA030101F000416F
:1012E0004FF0000070BD50EA410606BF1046194697
:1012F00052EA430619D094EA0C0F02D150EA0136A3
:1013000013D195EA0C0F05D152EA03361CBF1046E3
:1013100019460AD181EA030101F0004141F0FE4182
:1013200041F470014FF0000070BD41F0FE4141F406
:10133000780170BD70B54FF0FF0C4CF4E06C1CEA06
:1013400011541DBF1CEA135594EA0C0F95EA0C0FBB
:1013500000F0A7F8A4EB050481EA030E52EA033576
:101360004FEA013100F088804FEA03334FF0805597
:1013700045EA131343EA12634FEA022245EA1115C4
:1013800045EA10654FEA00260EF000419D4208BF75
:10139000964244F1FD0404F5407402D25B084FEA22
:1013A0003202B61A65EB03055B084FEA32024FF4CE
:1013B00080104FF4002CB6EB020E75EB030E22BF2B
:1013C000B61A754640EA0C005B084FEA3202B6EBEB
:1013D000020E75EB030E22BFB61A754640EA5C009A
:1013E0005B084FEA3202B6EB020E75EB030E22BF2A
:1013F000B61A754640EA9C005B084FEA3202B6EB2B
:10140000020E75EB030E22BFB61A754640EADC00E9
:1014100055EA060E18D04FEA051545EA16754FEA4B
:1014200006164FEAC30343EA52734FEAC2025FEA69
:101430001C1CC0D111F4801F0BD141EA00014FF0F8
:1014400000004FF0004CB6E711F4801F04BF0143C9
:101450000020B4F1FD0C88BFBCF5E06F3FF6AFAEE5
:10146000B5EB030C04BFB6EB020C5FEA500C50F175
:10147000000041EB045170BD0EF0004E4EEA1131F8
:1014800014EB5C04C2BFD4EB0C0541EA045170BDFF
:1014900041F480114FF0000E013C90E645EA060E43
:1014A0008DE60CEA135594EA0C0F08BF95EA0C0F71
:1014B0003FF43BAF94EA0C0F0AD150EA01347FF4B9
:1014C00034AF95EA0C0F7FF425AF104619462CE790
:1014D00095EA0C0F06D152EA03353FF4FDAE1046F3
:1014E000194622E750EA410618BF52EA43067FF444
:1014F000C5AE50EA41047FF40DAF52EA43057FF4D4
:10150000EBAE12E74A0011D212F5001211D20DD53E
:101510006FF47873B3EB62520ED44FEAC12343F0F9
:10152000004343EA505323FA02F070474FF00000A3
:10153000704750EA013002D14FF0FF3070474FF052
:101540000000704720F0030110F00300C0F100001C
:1015500051F8043B00F1040C4FEACC0C6FF0000290
:101560001CBF22FA0CF213434FF0010C4CEA0C2C76
:101570004CEA0C4CA3EB0C0222EA030212EACC1256
:1015800004BF51F8043B0430F4D0C2F1000102EA78
:101590000102B2FA82F2C2F11F0200EBD2007047E0
:1015A0002DE9F0414FF0010E744600254FF0FF3653
:1015B00063198B4200EB06070DD23F5D10F803C0A4
:1015C000BC452DD21D460124C6EB030E63198B4288
:1015D00000EB0607F1D34FF00108C2F800E04446E3
:1015E00000254FF0FF376319994200EB070E0ED923
:1015F0001EF804E010F803C0F44518D91D46012474
:10160000C7EB03086319994200EB070EF0D80137C6
:10161000701C874224BFC2F800803846BDE8F081C4
:101620000CD04FF0010E2E4674467544C0E709D029
:101630004FF001082F4644464544D4E7744505D091
:101640000134B5E7444504D00134CCE71D460124FC
:10165000AEE71D460124C6E72DE9F04FADF2144D6B
:10166000164605468B461046194603AA1C46FFF748
:1016700097FF03AB80460DF20C4243F8044F9342B0
:10168000FBD15CB1621E3346371904A813F8011B65
:10169000BB4240F8212002F1FF32F7D103993046D6
:1016A0003144424600F02EFA00286DD108F1FF3394
:1016B0000093F318824601932346814654465846C8
:1016C0009A4609EB0A073A1A0021284400F0D0F99B
:1016D000002840F0AC80002F00F0A980EB1904AA8C
:1016E00013F8013C52F823304BB124B1039A9342D2
:1016F00001D2C2EB0A03994400243846E1E744458D
:1017000023460AF1FF3E38BF4346734513D203EB2D
:10171000090216F803C0A85C84452A4406EB0301BD
:1017200006D02DE011F801CF12F8010F844527D122
:1017300001337345F6D34445009980F08780009BC0
:10174000019809EB03020378A85C83422A447DD107
:10175000019B06EB040B06E013F801ED12F8010DF6
:10176000864504D161465B4501F1FF3CF4D101346B
:101770008C4256D8039C3846A144C4EB0A04A0E727
:10178000C8F101029144B6E7C8EB0403434538BFF2
:101790004346013308F1FF370393F31958464FF0DE
:1017A0000009C346A246984609EB0A04221A002102
:1017B000284400F05DF9D0BBCCB32B1904AA13F870
:1017C000013C52F82330C3BB0AF1FF318B4514D2E0
:1017D00009EB0B0216F80BE0AB5C9E452A4406EBC6
:1017E0000B005B4606D02BE010F801CF12F801EF9A
:1017F000F44525D101338B42F6D37B1C11D009EB84
:10180000070298F80010AB5C99422A4414D1434671
:1018100005E013F8010D12F8011D88420CD1B34206
:10182000F7D105EB09000DF2144DBDE8F08F002053
:101830000DF2144DBDE8F08F039B99442046B3E7A9
:10184000CBF10102914499442046ADE741468EE731
:101850000278002A00F003812DE9F04F91F8008012
:1018600085B04346B8F1000F15D0844601F1010E52
:10187000012402E01EF8013B63B19A4214BF002428
:1018800004F001041CF8012F7746002AF2D19EF8DB
:1018900000301BB934B105B0BDE8F08F002005B0B1
:1018A000BDE8F08F0E4605464146013000F05CF978
:1018B000BC1B07460028F1D0012CECD02819874228
:1018C00094BFC7EB000B4FF0010B1F2C08D9384613
:1018D000594632462346FFF7BFFE05B0BDE8F08FFC
:1018E000214603AA3046FFF75BFE03998046024675
:1018F0003144304600F006F9002858D108F1FF3392
:101900000193F3188146054600935846B2462E19B6
:10191000321A0021384400F0ABF80028BED1002E66
:10192000BCD0C1454B4638BF43469C4212D95A19D8
:101930001AF80310B85C81423A440AEB030E06D051
:101940002DE01EF8010F12F8011F884227D1013344
:101950009C42F6D8019BC845194640F28380EA189C
:1019600000980378B85C83423A447BD1009B0AEB31
:10197000090B06E013F801CD12F801EDF44504D18E
:1019800001465B4501F1FF30F4D109F101098945B8
:101990006AD8039B30461D44C3EB0409B7E7C8F17E
:1019A000010215441D444FF000093046AFE7C8EB73
:1019B0000403434508F1FF3238BF434606EB0209F2
:1019C000013358460393CB464FF0000A91460AEB89
:1019D00004052A1A0021384400F04AF800287FF450
:1019E0005DAF002D3FF45AAF444514D90AEB08020D
:1019F00016F80800BB5C98423A4406EB08014346DF
:101A000006D022E011F801EF12F8010F86451CD133
:101A100001339C42F6D8B9F1FF3F11D00AEB09021D
:101A20009BF80010BB5C99423A4414D15B4605E038
:101A300013F8010D12F8011D88420CD1B342F7D101
:101A400007EB0A0005B0BDE8F08FC8F1010292442F
:101A50009A442846BBE7039B28469A44B7E70B788D
:101A600023B97047414690E7781914E70020704782
:101A7000830770B4C9B240D0541E002A3FD0037807
:101A80008B4218BF431C06D11DE0F4B102788A4294
:101A900004F1FF3417D013F0030F184603F10103CC
:101AA000F3D1032C14D884B103788B420BD00519E1
:101AB000431C02E002788A4205D0AB42184603F18B
:101AC0000103F7D1002070BC7047204670BC7047FE
:101AD00041EA0126024646EA0646104604320368F9
:101AE0007340A3F1013525EA030313F0803FDAD1F7
:101AF000043C032C1046F0D8D5E71446D1E7104635
:101B0000E1E700BF032A70B426D940EA01039B072E
:101B100011D004780D78AC4222D10244431C05E078
:101B200013F8014B11F8015FAC4219D19342F7D180
:101B3000002070BC70470C4603461E682568AE4204
:101B40001846214603F1040304F1040404D1043AC5
:101B5000032A18462146F0D8002ADAD11046E8E7D1
:101B6000601B70BC704700BFC9B270B4002933D08D
:101B7000850710D00378002B59D0994218BF431C19
:101B800006D127E013F8012B002A4DD0914221D035
:101B90009A071846F6D141EA0126036846EA064646
:101BA00001E050F8043F83EA0605A5F10134A3F1F2
:101BB000013224EA050422EA0303234313F0803FA1
:101BC000EFD0037823B932E010F8013F002B2ED07C
:101BD0009942F9D170BC704784070BD00378002B71
:101BE000F8D0431C03E002780133002AF2D09907B1
:101BF0001846F8D10268A2F1013323EA020313F078
:101C0000803F08D150F8042FA2F1013323EA0203E8
:101C100013F0803FF6D00378002BDBD010F8013FA3
:101C2000002BFBD170BC7047104670BC7047184643
:101C300070BC70474144435F4348333D25642041B5
:101C400044435F434831343D2564204144435F436E
:101C50004831353D25640D0A000000004F4E00005C
:041C60004F464600A5
:0400000508000000EF
:00000001FF
